:020000040800F2
:10000000701C0020E59C0008759A0008779A00088B
:10001000799A00087B9A00087D9A00080000000089
:100020000000000000000000000000007F9A0008AF
:10003000819A000800000000839A0008859A000851
:100040000D9D0008119D0008159D0008199D0008D0
:100050001D9D0008219D0008259D0008299D000880
:100060002D9D0008319D0008359D0008399D000830
:100070003D9D0008419D0008459D0008499D0008E0
:100080004D9D0008519D0008559D0008599D000890
:100090005D9D0008619D0008659D0008699D000840
:1000A0006D9D0008719D0008759D0008799D0008F0
:1000B0007D9D0008819D0008859D0008899D0008A0
:1000C0008D9D0008919D0008959D0008999D000850
:1000D0009D9D0008A19D0008A59D0008A99D000800
:1000E0008D9A0008AD9D0008B19D0008B59D0008DF
:1000F000B99D0008BD9D0008C19D0008C59D000870
:10010000C99D0008CD9D0008D19D0008D59D00081F
:10011000D99D0008DD9D0008E19D0008E59D0008CF
:10012000E99D0008ED9D0008F19D0008F59D00087F
:10013000F99D0008FD9D0008019E0008059E00082D
:10014000099E00080D9E0008119E0008999A00085B
:10015000159E0008199E00081D9E0008219E00089B
:10016000259E0008299E00082D9E0008319E00084B
:10017000359E0008399E00083D9E000800000000E2
:10018000419E0008459E0008499E00084D9E0008BB
:10019000519E0008559E0008599E00085D9E00086B
:1001A000619E0008659E0008699E00086D9E00081B
:1001B000719E0008759E0008799E00087D9E0008CB
:1001C000819E0008859E000800F5E070026891425B
:1001D00003D343681A44914202D380680028F5D1C2
:1001E00070471849086880B94FF4805048604FF450
:1001F00080324FF0FF30C86008610420124B8A60E3
:100200004861C3F8BC01114808600120704701F142
:10021000080313F0070F0EBF0023C3F1080303F018
:1002200007031944D21A8161C26042F001034B6096
:10023000091D4FF0280C41F802C0024A1369C3613E
:1002400070470000040C0020400800206859883CDA
:100250002DE9F84F84B00646AFF30080F52E1E4D11
:1002600080F00F820B2E31BF10260B36F608F600F9
:100270002868F408E04010F0030F4AD0C04300F0B3
:100280000100041905F1280000EBC408E700D8F8C4
:1002900008607068C008C000B84218BF01F0E2F9F9
:1002A000D6F80890464508BF01F0DCF94E4508BF76
:1002B00001F0D8F97068C008C000B84218BF01F05A
:1002C000D1F9C8450AD12868012101FA04F420EACD
:1002D00004042C6010E000BF40080020286981451C
:1002E00008D3D9F80C10B14204D1C8F80890C9F865
:1002F0000C8001E001F0B6F947F00300311D706099
:10030000301DCA5942F00102C25106F1080800F03E
:1003100010BFA968B14280F09F83002800F0A2803E
:100320004FF0010808FA04F1490000FA04F44842C9
:1003300001430C4060420440641E200B00F010009A
:10034000C440610901F00801CC40A20802F0040297
:10035000D440630803F002030818DC401018C4F30B
:10036000400718183818FC40241805F1280000EB45
:10037000C40AE700DAF80890D9F80400C008C00001
:10038000B84218BF01F06EF9D9F808B0D14508BFDE
:1003900001F068F9D94508BF01F064F9D9F8040003
:1003A000C008C000B84218BF01F05CF9DA4506D1B8
:1003B000286808FA04F420EA04042C600DE0296996
:1003C0008B4508D3DBF80C00484504D1CAF808B0C7
:1003D000CBF80CA001E001F045F9BF1B46F003008B
:1003E00009F10402C9F8040047F00101915109EB39
:1003F00006020192D751AC684FEAD40ABAF11F0F36
:1004000088BF01F02FF934B3CDF800A005F1280022
:100410006E6900EBCA0AD346102C38BF01F022F9EE
:100420002968009821FA00F2D30704D408FA00F0F2
:100430000843286007E0DAF80800296988422CBFE1
:10044000834601F00FF9CAF80860CBF80C60C6F8D3
:1004500008B0C6F80CA0AF6009F1080801986861FF
:1004600000F067BE6868002800F01783414208402A
:10047000401E010B01F01001C840420902F00802C1
:10048000D040830803F00403D840440804F0020479
:100490005118E0405918C0F34007611805F59878E5
:1004A0007918F840401858F820104868C008C00073
:1004B0008A46A0EB060B08E001464868C008C00069
:1004C000801B58453CBF83468A4608690028F3D103
:1004D00049690029F1D128698245C0F0CF80DAF856
:1004E0000410C90806EB0B09C900494518BF01F003
:1004F000B9F80AEB06008245019080F0BF80DAF877
:100500000C40DAF8187054450DD0DAF80800296963
:10051000884223D3C268524504BFA16851451DD10A
:10052000C460A0601CE00AF114010C6834B90AF13F
:1005300010010C68A4B101E011460C6804F114022A
:100540001068002802BF04F1100210680028F3D1DF
:100550002869814202D300220A6001E001F082F89A
:10056000002F34D0DAF81C0008EB800001688A45BF
:1005700009D1046094B9DAF81C006968012282404C
:100580009143696023E02869874205D33969514561
:1005900014BF7C613C6101E001F064F8BCB12969E1
:1005A0008C4212D3A761DAF8100028B1884226BF26
:1005B0002061846101F056F8DAF8140038B1296935
:1005C000884202D36061846101E001F04BF8BBF125
:1005D000100F0ED249F003000AF10401CAF804001A
:1005E0000AF1040051F8092042F0010240F8092004
:1005F0003EE046F003010AF10402CAF804104BF091
:1006000001009051019941F80BB0A8680090C4080E
:100610001F2C88BF01F026F8009828B305F12800A8
:1006200000996F6900EBC408C146102938BF01F07A
:1006300019F8286820FA04F1CA0705D4012101FA43
:1006400004F404432C6007E0D8F8080029698842C4
:100650002CBF814601F006F8C8F80870C9F80C7084
:10066000C7F80890C7F80C80C5F808B00198686111
:100670001AF1080800F0F08100F05BBD00F0F2FF15
:10068000EAE116F1400F28BF4FF0FF3680F0E48119
:100690000B36F6086B68F600002B00F0DD810027B2
:1006A000300AC6F1000908BF002423D0B0F5803F0E
:1006B00028BF1F241ED2A0F58071090C01F008018B
:1006C0008840A0F58052120C02F004029040A0F580
:1006D0008044240CC1F10E0104F00204891A091BA4
:1006E000A04001EBD031C81D26FA00F404F001044B
:1006F00004EB410405F5987858F8240030B31F2C1A
:100700000FBFB4464FEA540CCCF1190C06FA0CFC9E
:10071000BE46494601E04FEA4C0C4268D208D2007E
:10072000921B8A4202D2110007460CD04269103057
:100730004FEADC7950F82900002A1CBF8242964615
:100740000028E8D170468946A8BBB7BB012101FA51
:1007500004F4640060420443234000F07D81584269
:1007600003405B1E180B00F01000C340590901F054
:100770000801CB409A0802F00402D3405C0804F060
:1007800002040818E3401018C3F3400C201860441A
:1007900023FA0CF31B1858F823000CE008464168B4
:1007A000C908C900891B49453CBF894607460169FC
:1007B0000029F3D140690028F1D1002F00F04C81CD
:1007C000A868801B814580F0478129698F42FFF42A
:1007D00055AF7868C008C00006EB0901884218BF11
:1007E00000F040FF07EB060B5F45BFF447AFFC6826
:1007F000D7F818A0BC420CD0B8682969884223D326
:10080000C268BA4204BFA168B9421DD1C460A060E9
:100810001CE007F114010C6834B907F110010C68F1
:10082000A4B101E011460C6804F11402106800281C
:1008300002BF04F1100210680028F3D12869814238
:1008400002D300220A6001E000F00CFFBAF1000FB1
:1008500034D0F86908EB800001688F4208D1046049
:10086000A4B9F8696968012282409143696025E072
:100870002869824508D3DAF81010B94214BFCAF8C3
:100880001440CAF8104001E000F0ECFEB4B1296950
:100890008C4211D3C4F818A0386928B1884226BF09
:1008A0002061846100F0DEFE786938B129698842F0
:1008B00002D36061846101E000F0D4FEB9F1100F51
:1008C0000CD2B14449F00300391D7860381D51F84D
:1008D000092042F0010240F80920B9E046F0030186
:1008E0003A1D796049F0010090514FEAD9004BF868
:1008F00009901F2822D805F1280101EBC0042968BE
:1009000021FA00F2D307A04605D4012202FA00F032
:100910000843286006E0A068296988422CBF804609
:1009200000F0A0FEC4F808B007F10800C8F80CB049
:1009300040F8068007F10C018C5189E05FEA19202C
:1009400008BF002123D0B0F5803F28BF1F211ED251
:10095000A0F58072120C02F008029040A0F58051C0
:10096000090C01F004018840A0F580431B0CC2F182
:100970000E0203F00203521AD21A984002EBD03250
:10098000D01D29FA00F101F0010101EB420107F14C
:100990001403CBF81C1000229A5107F1100308EB46
:1009A00081009A516A6822FA01F3DC0711D401230D
:1009B00003FA01F111436960C0F800B0CBF81800E8
:1009C00007F1080107F10C0040F806B041F806B045
:1009D0003EE002681F291DBF4908C1F1190109FA4B
:1009E00001F1494600E002465068C008C000484591
:1009F00018D002F11003C80F03EB800349001868F8
:100A00000028F0D12869834220D3C3F800B007F151
:100A10000C01CBF8182041F806B007F1080040F8A7
:100A200006B015E0296990688A4228BF88420DD334
:100A3000C0F80CB007F10801C2F808B0885107F1FE
:100A40000C0082510022CBF8182001E000F00AFED1
:100A500017F1080840F06D83A868B0421DD3811BD0
:100A60006A6910290AD390196861A96041F00103ED
:100A70004360415046F0030656600BE00021A96038
:100A80006961131D40F003015160111D1C5844F0B1
:100A900001040C5002F108084BE3E8688642C0F0FC
:100AA0003883DFF8B89BD9F8000008B9FFF799FB45
:100AB000D9F8081088192F30491E20EA01018E420A
:100AC00080F0358305F5D877B86838B13A68891869
:100AD0008A4280F02C838842C0F0298300F0E2FD36
:100AE00000281CBFD0F8008010F1010F00F01F8318
:100AF00039687A68414439608A4238BF7960AC69A4
:100B000004BB296909B1884200D2286100213861FB
:100B1000C7F81480F9614FF0FF31D9F800206A62FC
:100B2000296205F128020021D260926002F10804D6
:100B300054611461891C10321F29F5D9A8F12802CB
:100B400001461DE005F5E0710A46814600E0926825
:100B5000D2B11068536803449945F8D1107B03075C
:100B600012D413689C420FD3D2F804C063449C4251
:100B70000AD2C444C2F804C02146E86808EB000267
:100B80002846FFF744FBC1E22869814538BFC5F814
:100B9000109009EB080000E08968002900F0BD8191
:100BA0000A688242F8D1087B020700F1B681086822
:100BB000C1F800904A6842444A6009F1080111F006
:100BC000070F08BFCDF8049006D0C1F1080101F06D
:100BD000070109EB0102019200F1080111F0070F72
:100BE00004D0C1F1080101F00701084480460198D2
:100BF000A8EB00018419A1EB060B274646F003067B
:100C00004660474528BF00F02DFD98F80400C10755
:100C100058BF00F027FDBBF1100F38BF00F022FDD8
:100C2000A869804508D1E9688B44C5F80CB0AF616C
:100C30004BF0010078606CE1686980450AD1A968D1
:100C40008B44C5F808B06F614BF00100786047F83D
:100C50000BB05EE1D8F8040000F00301012940F078
:100C6000B880C008C000C1081F29039040D8D8F838
:100C700008200092D8F80C600291B04508BF00F03F
:100C8000F1FC0098804508BF00F0ECFCD8F80400A7
:100C90000299C008C000B0EBC10F18BF00F0E2FC21
:100CA0000299009A05F1280000EBC100824208D0A9
:100CB00011462A699142C0F08780CA68424540F0D7
:100CC000838000998E4206D102982A6801238340CE
:100CD0009A432A607AE0864205D029698E4273D30E
:100CE000B068404570D10098C6600099B1606DE071
:100CF000D8F818000090D8F80C6046450DD0D8F808
:100D000008002969884223D3C268424504BFB168FC
:100D100041451DD1C660B0601CE008F114010E68A9
:100D200036B908F110010E68A6B101E011460E684F
:100D300006F114021068002802BF06F110021068C4
:100D40000028F3D12869814202D300220A6001E021
:100D500000F088FC0098002838D0D8F81C0005F571
:100D6000987101EB80000168884509D106609EB941
:100D7000D8F81C006968012282409143696025E02F
:100D800000982969884205D30169414514BF46612D
:100D9000066101E000F066FCC6B129698E4213D3FA
:100DA0000098B061D8F8100028B1884226BF3061A1
:100DB000866100F057FCD8F8140038B129698842E0
:100DC00002D37061866101E000F04CFC0399884415
:100DD0008B44D8F8041049084900C8F804104BF0B7
:100DE000010078604FEADB0647F80BB01F2E22D8CF
:100DF00005F1280000EBC604A146BBF1100F38BF77
:100E000000F030FC286820FA06F1CA0705D4012159
:100E100001FA06F606432E6006E0A06829698842BA
:100E20002CBF814600F01EFCA760C9F80C70C7F803
:100E30000890FC606DE05FEA1B2008BF002123D012
:100E4000B0F5803F28BF1F211ED2A0F58072120C82
:100E500002F008029040A0F58051090C01F0040155
:100E60008840A0F580431B0CC2F10E0203F0020380
:100E7000521AD21A984002EBD032D01D2BFA00F150
:100E800001F0010101EB4201F961002305F59872BF
:100E90007B6102EB81003B616A6822FA01F3DE07A5
:100EA00007D4012303FA01F1114369600760B861B7
:100EB0001DE002681F291DBF4908C1F119010BFA85
:100EC00001F1594600E002465068C008C00058458C
:100ED00010D002F11003C80F03EB8003490018681B
:100EE0000028F0D12869834211D31F60BA61FF60E6
:100EF000BC600EE0296990688A4228BF884206D308
:100F0000C7609460B860FA600020B86101E000F04A
:100F1000A9FB019800F108080BE121462846FFF7DC
:100F200053F90168406808440090A0F1270111F0CE
:100F3000070000980EBF0021C1F1080101F0070170
:100F40000844A0F12F0B04F110018B4538BFA346D4
:100F50000BF11802002102920191A8F128024946E2
:100F60002846FFF754F90BF1080010F0070F18BFDF
:100F700000F078FB1B20CBF8040005F5E07292E846
:100F800009500BF1080181E8095000210BF108001C
:100F9000F961B861009A02980199C7F81090C7F8F2
:100FA0001480072300E0001D491C00F10807974248
:100FB0004360F8D30129D8BF00F054FBA34500F0EB
:100FC000A580ABEB040B201D221D50F80B10490827
:100FD000490042F80B104BF0010060604FEADB095A
:100FE00044F80BB0B9F11F0F22D805F1280000EB2F
:100FF000C907B846BBF1100F38BF00F033FB2868B3
:1010000020FA09F1CA0705D4012101FA09F10843C0
:10101000286006E0B868296988422CBF804600F045
:1010200021FBBC60C8F80C40C4F80880E7606DE0A4
:101030005FEA1B2008BF002123D0B0F5803F28BF06
:101040001F211ED2A0F58072120C02F008029040FF
:10105000A0F58051090C01F004018840A0F58043FF
:101060001B0CC2F10E0203F00203521AD21A98406E
:1010700002EBD032D01D2BFA00F101F0010101EB9F
:10108000420105F59872002302EB8100E161636182
:1010900023616A6822FA01F3DF0707D4012303FA08
:1010A00001F1114369600460A0611DE002681F291D
:1010B0001DBF4908C1F119010BFA01F1594600E0C1
:1010C00002465068C008C000584510D002F1100315
:1010D000C80F03EB8003490018680028F0D1286985
:1010E000834211D31C60A261E460A4600EE0296910
:1010F00090688A4228BF884206D3C4609460A0608A
:10110000E2600020A06101E000F0ACFAE8688642ED
:101110000DD2801BA969E8608A19AA6140F001001C
:10112000506046F003064E6001F1080801E04FF000
:101130000008AFF30080404605B0BDE8F08F0028FE
:1011400000D170472DE9F047A0F10805AFF300800A
:10115000DFF80C6531698D42C0F07A82686800F072
:101160000302012A00F07482C2084FEAC209C207D2
:1011700005EB090839D42C6810F0030F00F06A82DF
:10118000604205448D42A144C0F06282706985428C
:1011900000F0DA80E408202C72D2D5F80CA0AF68F9
:1011A000554508BF00F05EFABD4208BF00F05AFA8C
:1011B0006868C008C000B0EBC40F18BF00F052FA56
:1011C00006F1280000EBC400874205D031698F4248
:1011D00053D3FA68AA4250D1BA4540D130680121B0
:1011E00001FA04F420EA04043460454580F03082BA
:1011F000D8F80440E00740F12B82A10700F17C8180
:10120000B069804540F0B380F168B5618944C6F8A3
:101210000C9049F00100686071698D4202D1002094
:101220007061B060F169494580F01482DFF82C24C8
:10123000106808B9FEF7D5FFB169002900F00A82ED
:10124000F068292824BF3046FEF7BEFFF069F16838
:10125000884280F0FF814FF0FF30F061FAE1824573
:1012600006D03069824508D3DAF80810A94204D1C3
:10127000C7F80CA0CAF80870B7E700F0F3F9B4E7B4
:10128000EC68AF69AC420BD0A868884222D3C16831
:10129000A94204BFA268AA421CD1C460A0601BE09E
:1012A00005F11402146834B905F1100214689CB1F8
:1012B00001E01A46146804F114031868002802BFFC
:1012C00004F1100318680028F3D18A4202D30021E8
:1012D000116001E000F0C6F9002F86D0E96906F53B
:1012E000987000EB81000268954209D104602000EB
:1012F00011D1E8697168012282409143716074E7FD
:101300003069874205D33969A94214BF7C613C61C9
:1013100001E000F0A7F9002C3FF467AF31698C427F
:10132000ABD3A761286928B1884226BF20618461B8
:1013300000F098F9686900283FF457AF3169884296
:101340009BD36061846150E798F8040000F00300CB
:1013500003287FF44AAFC6F8089049F00101D8F895
:10136000040040084000C8F8040069600AE07069A1
:1013700080450AD1B16875618944C6F8089049F082
:101380000100686045F8099064E1E408E400A144C4
:10139000E408202C3AD2D8F80CA0D8F80870D04530
:1013A00008BF00F05FF9B84508BF00F05BF9D8F856
:1013B0000400C008C000B0EBC40F18BF00F052F921
:1013C00006F1280000EBC400874207D031698F4244
:1013D000C0F08580FA68424540F08180BA4507D167
:1013E0003068012101FA04F420EA0404346078E052
:1013F000824506D03069824571D3DAF8081041453C
:101400006DD1C7F80CA0CAF808706AE0D8F80C4093
:10141000D8F8187044450DD0D8F8080031698842D2
:1014200023D3C268424504BFA16841451DD1C460B1
:10143000A0601CE008F114010C6834B908F1100137
:101440000C68A4B101E011460C6804F114021068A4
:10145000002802BF04F1100210680028F3D130699F
:10146000814202D300220A6001E000F0FBF8002F65
:1014700037D0D8F81C1006F5987000EB8100026890
:1014800090450AD10460200012D1D8F81C00716880
:10149000012282409143716023E03069874205D385
:1014A0003969414514BF7C613C6101E000F0DAF824
:1014B000BCB131698C4212D3A761D8F8100028B1B1
:1014C000884226BF2061846100F0CCF8D8F814006F
:1014D00038B13169884202D36061846101E000F073
:1014E000C1F849F00100686045F8099071698D42C2
:1014F0000BD1C6F80890ADE064086400C8F8044059
:1015000049F00100686045F809904FEAD907202F9B
:1015100022D206F1280000EBC704A046B9F1100F53
:1015200038BF00F09FF8306820FA07F1CA0705D4E9
:10153000012101FA07F70743376006E0A068316927
:1015400088422CBF804600F08DF8A560C8F80C508A
:10155000C5F80880EC607DE05FEA192008BF002133
:1015600023D0B0F5803F28BF1F211ED2A0F5807286
:10157000120C02F008029040A0F58051090C01F015
:1015800004018840A0F580431B0CC2F10E0203F059
:101590000203521AD21A984002EBD032D01D29FA17
:1015A00000F101F0010101EB420106F59872002300
:1015B00002EB8100E9616B612B61726822FA01F331
:1015C000DC0707D4012303FA01F1114371600560C0
:1015D000A8611DE002681F291DBF4908C1F119015A
:1015E00009FA01F1494600E002465068C008C0000F
:1015F000484510D002F11003C80F03EB80034900E7
:1016000018680028F0D13069834211D31D60AA61A7
:10161000ED60AD600EE0316990688A4228BF884273
:1016200006D3C5609560A860EA600020A86101E06B
:1016300000F018F8306A401E30620BD1D6F8C801AD
:1016400000E080680028FCD14FF0FF30306201E0FC
:1016500000F008F8AFF30080BDE8F087040C00202C
:1016600040080020012000F033B830B4002513E01A
:1016700050F8042BD30744BFA9F101039A18091F9E
:10168000042942F8045BFAD213468C0744BF158044
:101690009B1CC90748BF1D7050F8041B0029E7D1E7
:1016A00030BC70470749086808B1002070470648F9
:1016B000C008C00008600549C908C900091A0160CE
:1016C000704700BF640C0020771C0020702C0020A5
:1016D00080B5AFF30080024A11001820ABBEFBE7D3
:1016E0002600020038B58AB00400002C01D1012088
:1016F00031E0256894F8B902002805D1002084F86B
:10170000B802200001F066F8032084F8B902E86B03
:10171000C00501D400202061206801F03CFA211DA1
:1017200083B06846342201F03DFF0EBC206801F012
:10173000F3F90121206801F035FA211D83B06846D4
:10174000342201F02FFF0EBC206801F0D5FA0120F1
:1017500084F8B90200200BB030BD2DE9FF47070027
:10176000884691469A460C9C0D9D0E9E97F8B802AD
:10177000012801D102205AE0012087F8B802282070
:101780004146C9B241433944002281F83D204146D7
:10179000C9B24143394481F838A04146C9B24143F6
:1017A0003944A1F840604146C9B24143394481F807
:1017B00039804146C9B24143394481F83F504146DE
:1017C000C9B24143394419F07F0281F83A204946B1
:1017D000C9B2090607D54146C9B24143394401227D
:1017E00081F83B2006E04146C9B24143394400221A
:1017F00081F83B204146C9B200FB01F0384480F833
:101800003C40300080B202902800C0B2019020001D
:10181000C0B200905346DBB24A46D2B24146C9B28A
:10182000386801F06FFB002187F8B812C0B204B02D
:10183000BDE8F08770B504000D00002694F8B802EA
:10184000012801D102200CE0012084F8B80229000F
:10185000C9B2206801F05FFD002084F8B8023000B2
:10186000C0B270BD2DE9F84F0700884691469A46F0
:101870000A9CDDF82CB00C9D0D9E28214046C0B27C
:101880004843384480F83B904046C0B2484338440F
:1018900080F83FA02000C0B200280DD14046C0B261
:1018A00048433844032280F842204046C0B24843AF
:1018B000384480F83D6006E04046C0B248433844B2
:1018C000022280F842205046C0B2002806D00228EA
:1018D0002FD0C0F0968003285FD09AE02000C0B2DD
:1018E000012825D14846C0B2002821D1280080B265
:1018F000002806D14046C0B248433844012280F84F
:1019000051204046C0B24843384490F85100002866
:1019100007D14046C0B248433844002280F84220F4
:1019200006E04046C0B248433844022280F84220D4
:101930006FE04846C0B2002817D14046C0B24843C5
:10194000384490F85100002807D14046C0B24843BF
:101950003844002280F842201EE04046C0B248438E
:101960003844022280F8422016E04046C0B2484384
:10197000384490F85000002807D14046C0B2484390
:101980003844002280F8422006E04046C0B2484376
:101990003844022280F842203BE04846C0B200288A
:1019A00017D14046C0B24843384490F8510000284F
:1019B00007D14046C0B248433844002280F8422054
:1019C0001EE04046C0B248433844022280F842201C
:1019D00016E04046C0B24843384490F85000002812
:1019E00007D14046C0B248433844002280F8422024
:1019F00006E04046C0B248433844022280F8422004
:101A000007E04046C0B248433844002280F84220F4
:101A1000FFE74046C0B248433844C0F844B04046AF
:101A2000C0B2484338442A0092B282644046C0B2F1
:101A300048433844002280F85C204046C0B2484306
:101A400038440022C2644046C0B24843384480F85B
:101A500039804046C0B248433844002280F85D20B7
:101A60003A69D2B24046C0B201FB00F107EB010077
:101A700010F13801386801F056FBBDE8F28F2DE90E
:101A8000F04106003768B846306801F012F90128C5
:101A900040F09180306801F007F9002800F08B8059
:101AA000306801F001F9800203D55FF4001031685D
:101AB0004861306801F0F8F8C00203D55FF4801087
:101AC00031684861306801F0EFF8400103D55FF0FC
:101AD000806031684861306801F0E6F8800702D51F
:101AE000022031684861306801F0DEF880000FD5CF
:101AF0005FF000503168486118F588600068C007E1
:101B000006D4300000F0B8FE0121306801F06EF913
:101B1000306801F0C9F8C00102D5300000F0F6FDD0
:101B2000306801F0C1F8000705D5300000F096FEDE
:101B3000082031684861306801F0B6F8800126D588
:101B4000306801F0E1FB050000200400B068844229
:101B500019D214F00F002900C140C80711D518EBA5
:101B6000441010F5A0600068000405D52100C9B23A
:101B7000300000F06BF804E02100C9B2300000F042
:101B80001DFB641CE2E75FF000703168486130685B
:101B900001F08AF8C0060ED53068806930F0100078
:101BA00031688861300000F04DFD3068806950F088
:101BB000100031688861BDE8F08110B5040094F828
:101BC000B802012801D102200DE0012084F8B802FA
:101BD000206800F0D9FF0121206801F054F90020AD
:101BE00084F8B802002010BD10B5040094F8B802C3
:101BF000012801D1022009E0012084F8B802206800
:101C000001F06AFC002084F8B802002010BD10B575
:101C10000400206801F016F910BDC9B22822514312
:101C2000084490F85C007047C9B228225143084428
:101C3000C06C704710B50400206801F05CF910BD5D
:101C400010B50400206801F048F910BD2DE9F047F7
:101C500005000E002F68B846B1465FFA89F918EB07
:101C6000491010F5A0608068400712D518EB4910A4
:101C700010F5A0600421816018EB491010F5A060F8
:101C800018EB491111F5A061C96851F00201C1605A
:101C90008CE018EB491010F5A0608068C0051FD5D6
:101CA00018EB491010F5A0604FF480718160072097
:101CB000282101FB09F1294481F85D0018EB491046
:101CC00010F5A06018EB491111F5A061C96851F039
:101CD0000201C1604946C9B2286801F01CFB65E0F9
:101CE00018EB491010F5A0608068800606D518EB47
:101CF000491010F5A0602021816057E018EB4910D1
:101D000010F5A0608068000724D518EB491010F585
:101D1000A06018EB491111F5A061C96851F00201EA
:101D2000C1600520282101FB09F1294481F85D00EB
:101D300018EB491010F5A0601021816018EB4910D4
:101D400010F5A060082181604946C9B2286801F0F9
:101D5000E2FA2BE018EB491010F5A060806840050E
:101D600024D518EB491010F5A06018EB491111F5B6
:101D7000A061C96851F00201C1604946C9B2286832
:101D800001F0C9FA18EB491010F5A060102181602C
:101D90000820282101FB09F1294481F85D0018EB96
:101DA000491010F5A0604FF48061816018EB491074
:101DB00010F5A0608068800518D518EB491010F563
:101DC000A06018EB491111F5A061C96851F002013A
:101DD000C1604946C9B2286801F09DFA18EB491064
:101DE00010F5A0604FF400718160E5E118EB491037
:101DF00010F5A0608068C00740F1A2802869002823
:101E000010D0282000FB09F12944896C18EB4912F5
:101E100012F5A06212695203520B891A00FB09F0F5
:101E20002844C1645FF0280A01200AFB09F1294413
:101E300081F85D0000200AFB09F12944886518EB50
:101E4000491010F5A060012181600AFB09F02844C7
:101E500090F83F00002806D00AFB09F0284490F8CB
:101E60003F00022817D118EB491010F5A06018EBBD
:101E7000491111F5A061C96851F00201C1604946DC
:101E8000C9B2286801F047FA18EB491010F5A060B4
:101E90001021816046E00AFB09F0284490F83F00D9
:101EA00003281CD118EB491010F5A060006850F011
:101EB000005018EB491111F5A061086001200AFBE0
:101EC00009F1294481F85C000AFB09F0284490F8E4
:101ED0005C204946C9B2280000F0D5FC22E00AFB8C
:101EE00009F0284490F83F0001281BD101200AFB8B
:101EF00009F1294481F85C000AFB09F0284490F8B4
:101F0000500090F001000AFB09F1294481F85000CB
:101F10000AFB09F0284490F85C204946C9B2280021
:101F200000F0B1FC0AFB09F0284490F8500090F052
:101F300001000AFB09FA05EB0A0181F850003BE1B8
:101F400018EB491010F5A0608068800740F1AC8064
:101F500018EB491010F5A06018EB491111F5A061BC
:101F6000C96831F00201C160282000FB09F1294451
:101F700091F85D10012906D1012100FB09F22A44E4
:101F800082F85C107FE000FB09F1294491F85D10B4
:101F9000052906D1052100FB09F22A4482F85C10CC
:101FA00071E000FB09F1294491F85D10062906D083
:101FB00000FB09F1294491F85D10082930D100FB9C
:101FC00009F12944896D491C00FB09F22A449165F5
:101FD00000FB09F12944896D04290BD3002100FB82
:101FE00009F22A449165042100FB09F22A4482F88F
:101FF0005C1005E0022100FB09F22A4482F85C1023
:1020000018EB491111F5A061096831F0804151F0D8
:1020100000410C0018EB491111F5A0610C6032E091
:1020200000FB09F1294491F85D10032915D1022123
:1020300000FB09F22A4482F85C1018EB491111F5F3
:10204000A061096831F0804151F000410C0018EBAB
:10205000491111F5A0610C6015E000FB09F129445C
:1020600091F85D1007290ED100FB09F12944896D13
:10207000491C00FB09F22A449165042100FB09F286
:102080002A4482F85C1018EB491111F5A061022274
:102090008A6000FB09F0284490F85C204946C9B2E8
:1020A000280000F0F0FB87E018EB491010F5A06065
:1020B0008068000627D518EB491010F5A06018EBD2
:1020C000491111F5A061C96851F00201C1602820D1
:1020D00000FB09F12944896D491C00FB09F22A44DF
:1020E0009165062100FB09F0284480F85D104946FF
:1020F000C9B2286801F00FF918EB491010F5A0607B
:102100008021816058E018EB491010F5A0608068CC
:10211000C00651D5282101FB09F0284490F83F0062
:10212000032816D1002001FB09F12944886518EB2A
:10213000491010F5A06018EB491111F5A061C968AC
:1021400051F00201C1604946C9B2286801F0E3F8C4
:102150002CE001FB09F0284490F83F00002806D04D
:1021600001FB09F0284490F83F0002281ED100200E
:1021700001FB09F22A4490652869002816D1032042
:1021800001FB09F1294481F85D0018EB491010F5B5
:10219000A06018EB491111F5A061C96851F0020166
:1021A000C1604946C9B2286801F0B5F818EB49107A
:1021B00010F5A06010218160BDE8F0872DE9F0479F
:1021C00005000E002F68B846B1465FFA89F918EB92
:1021D000491010F5A0608068400712D518EB49102F
:1021E00010F5A0600421816018EB491010F5A06083
:1021F00018EB491111F5A061C96851F00201C160E5
:102200001EE218EB491010F5A060806880062CD5FE
:1022100018EB491010F5A06020218160282000FBF8
:1022200009F1294491F83D10012940F0098200216B
:1022300000FB09F22A4482F83D10022100FB09F05C
:10224000284480F85C1018EB491010F5A06018EBDA
:10225000491111F5A061C96851F00201C1604946F8
:10226000C9B2286801F057F8EAE118EB491010F5F7
:10227000A0608068400629D52820042100FB09F2CF
:102280002A4482F85D10012100FB09F22A4482F8F9
:102290003D10002100FB09F02844816518EB49102E
:1022A00010F5A06018EB491111F5A061C96851F053
:1022B0000201C1604946C9B2286801F02CF818EB48
:1022C000491010F5A06040218160B9E118EB491078
:1022D00010F5A0608068800518D518EB491010F53E
:1022E000A06018EB491111F5A061C96851F0020115
:1022F000C1604946C9B2286801F00DF818EB4910D1
:1023000010F5A0604FF40071816099E118EB49105D
:1023100010F5A0608068C00725D55FF0280A00206E
:102320000AFB09F12944886518EB491010F5A060F3
:1023300018EB491111F5A061C96851F00201C160A3
:102340004946C9B2286800F0E6FF18EB491010F5BD
:10235000A0600121816001200AFB09FA05EB0A0156
:1023600081F85D006CE118EB491010F5A060806801
:1023700000071ED518EB491010F5A06008218160F8
:1023800018EB491010F5A06018EB491111F5A06188
:10239000C96851F00201C1604946C9B2286800F01D
:1023A000BAFF0520282101FB09F1294481F85D00CD
:1023B00046E118EB491010F5A0608068C00637D5DB
:1023C0002821002001FB09F22A449065032001FB2B
:1023D00009F22A4482F85D0001FB09F0284490F8D4
:1023E0003D0000280CD101FB09F0284490F83C0086
:1023F000002805D1012001FB09F1294481F83D00A5
:1024000018EB491010F5A06018EB491111F5A06107
:10241000C96851F00201C1604946C9B2286800F09C
:102420007AFF18EB491010F5A0601021816007E1D8
:1024300018EB491010F5A060806800061ED518EB57
:10244000491010F5A06018EB491111F5A061C96899
:1024500051F00201C1604946C9B2286800F05BFF33
:102460000620282101FB09F1294481F85D0018EBC1
:10247000491010F5A06080218160E1E018EB49105F
:1024800010F5A0608068400525D518EB491010F5BF
:10249000A06018EB491111F5A061C96851F0020163
:1024A000C1604946C9B2286800F035FF18EB4910F1
:1024B00010F5A0601021816018EB491010F5A060A4
:1024C0004FF4806181600820282101FB09F1294433
:1024D00081F85D00B4E018EB491010F5A060806849
:1024E000800740F1AD8018EB491010F5A06018EBA3
:1024F000491111F5A061C96831F00201C1602820BD
:1025000000FB09F1294491F85D10012920D1012136
:1025100000FB09F22A4482F85C1000FB09F129440F
:1025200091F83F10022906D000FB09F1294491F8E7
:102530003F10032974D100FB09F1294491F851108F
:1025400091F0010100FB09F22A4482F8511067E082
:1025500000FB09F1294491F85D10032906D10221FD
:1025600000FB09F22A4482F85C1059E000FB09F1F3
:10257000294491F85D10042906D1022100FB09F2DB
:102580002A4482F85C104BE000FB09F1294491F8E1
:102590005D10052906D1052100FB09F22A4482F8C5
:1025A0005C103DE000FB09F1294491F85D1006291B
:1025B00006D000FB09F1294491F85D1008292FD1BC
:1025C00000FB09F12944896D491C00FB09F22A44EA
:1025D000916500FB09F12944896D04290BD3002181
:1025E00000FB09F22A449165042100FB09F22A4408
:1025F00082F85C1005E0022100FB09F22A4482F80F
:102600005C1018EB491111F5A061096831F08041A7
:1026100051F000410C0018EB491111F5A0610C605C
:1026200018EB491111F5A06102228A6000FB09F044
:10263000284490F85C204946C9B2280000F023F9EC
:10264000BDE8F0872DE9F84F05002E6837002868AF
:10265000D0F8208018F00F09C8F3434AC8F30A14D1
:102660005046022802D005284BD04BE0002C47D022
:102670005FF0280B0BFB09F02844406C00283FD08A
:10268000220092B20BFB09F02844416C286800F04C
:10269000F5FA0BFB09F02844406C20440BFB09F1D0
:1026A000294448640BFB09F02844C06C20180BFB3C
:1026B00009F12944C86417EB491010F5A0600069BE
:1026C000114908421CD017EB491010F5A0600068B2
:1026D00030F0804050F000400090009817EB491116
:1026E00011F5A06108600BFB09F0284490F8500038
:1026F00090F001000BFB09FB05EB0B0181F850008A
:1027000000E0FFE7BDE8F18F0000F81F7CB5040092
:1027100025682E0016F588600068019016F588601F
:1027200000680090009830F02E000090019880071B
:1027300009D50198C00702D5200000F096F800984E
:1027400050F0020000900198000728D5009850F042
:1027500008000090019840071ED5A06902280FD1FB
:10276000019810F4C020B0F5802F04D10221206818
:1027700000F03CFB0CE00121206800F037FB07E093
:10278000E068012804D14EF6602016F580614860AB
:10279000200000F079F802E0200000F07CF80198B9
:1027A000800603D5009850F020000090009816F5A0
:1027B0008861086073BDB1F5807F02D34FF0FF30B0
:1027C00070470170012070470078401E8041C0436F
:1027D000C00F704730B587B004001421002202AD4D
:1027E000280000F023FF2068B0F1A04F34D1414809
:1027F000016851F001010160006810F001000090D3
:1028000000984FF4C05002900220039000200490E2
:10281000032005900A20069002A9374800F03AFFED
:102820003648016851F080010160006810F08000B6
:10283000019001983248016851F4804101600068BC
:1028400010F480400090009800220021432001F005
:10285000F3F8432001F005F907B030BD10B50400CE
:10286000D4F8C00201F0CEFC10BD10B50400D4F8BD
:10287000C00201F0E9FC10BD10B50400D4F8C0029C
:1028800001F0EEFC10BD704710B50400D4F8C00292
:1028900001F0D2FC10BD10B50400D4F8C00201F064
:1028A000CFFC10BD38B5040094F8CC0301281FD12B
:1028B000144DC5F8C042C4F8D0535FF0A040286062
:1028C0000820A8600120E860002028610220A8619B
:1028D0000020E8612800FEF705FF002801D001F084
:1028E0002FFE2800FFF7A6F90100200001F087FC69
:1028F000002032BD3038024000000240343802402F
:10290000443802407C050020F8B50400002500276B
:10291000D4F8D003FFF751F906003000C0B200F040
:10292000E4F8C0B2F2BDF8B5040000250027D4F8E1
:10293000D003FFF759F906003000C0B200F0D5F817
:10294000C0B2F2BD38B504000125D4F8D003FFF7BA
:1029500077F9002803D0022805D002D305E0002033
:1029600004E0012002E0022000E00120C0B232BDFC
:10297000F8B5040000250027D4F8D003FFF747F985
:1029800006003000C0B200F0B0F8C0B2F2BD38B5F9
:1029900004000D002900C9B2D4F8D003FFF744F9B0
:1029A00032BD2DE9FF4704000D0016001F005FF047
:1029B00000085FF00009BDF8380002909DF834006F
:1029C00001909DF8300000903B00DBB23200D2B2A3
:1029D0002900C9B2D4F8D003FEF7BFFE82465046A4
:1029E000C0B200F082F8C0B204B0BDE8F0872DE9B3
:1029F000F04104000D0000265FF000082900C9B274
:102A0000D4F8D003FEF716FF07003800C0B200F07C
:102A10006CF8C0B2BDE8F0812DE9FF4704000D005D
:102A200016001F005FF000085FF000099DF83C00F1
:102A30000390BDF8380002900D9801909DF8300089
:102A400000903B00DBB23200D2B22900C9B2D4F808
:102A5000D003FEF707FF82465046C0B200F045F8AB
:102A6000C0B204B0BDE8F08738B504000D002900FD
:102A7000C9B2D4F8D003FFF7D0F832BD38B504009E
:102A80000D0094F8CC03012803D12800C0B201F056
:102A900059FDC82001F06AFD002032BD30B40300AA
:102AA000D3F8D04328250800C0B26843204490F8EA
:102AB0003B00002808D00800C0B205FB00F504EB7D
:102AC000050080F8502007E00800C0B205FB00F5C3
:102AD00004EB050080F85120002030BC704710B591
:102AE0000400200001F042FD10BD0100002208009A
:102AF000C0B2002805D0022807D004D3032806D08E
:102B000007E0002006E0022004E0012002E00220AD
:102B100000E00220C0B270470EB418B50400089857
:102B2000012817D1A06B30F48030A063E168DFF892
:102B3000F8000140E160E06830F44010E0600F9878
:102B4000012803D1E06850F48010E060200000F01C
:102B5000B4F80AE0E06850F04000E060200000F0C7
:102B6000ACF8A16B51F48031A1630699012907D11A
:102B7000A16851F00601A160A16851F02001A16097
:102B8000C0B212BC5DF810FB0100886850F0010073
:102B90008860002070470100886840084000886015
:102BA0000020704738B504000D00E06830F0C040E8
:102BB000E0602800C0B2012804D1E06850F0005065
:102BC000E0600AE02800C0B2002804D1E06850F0BC
:102BD0008040E06001E0012003E0322001F0C6FC0B
:102BE000002032BD02000023880150F02000106157
:102BF0005B1CDFF80001834201D3032003E010696E
:102C00008006F5D4002070470100002210200861E2
:102C1000521CDFF8E000824201D3032003E0086980
:102C2000C006F5D400207047BFFFBDFF2DE9F0437B
:102C30000700079CBC468E462000C0B200281AD16F
:102C4000180080B2C01C8008050000200600AE42BB
:102C500011D27046D0F8008091465FFA89F94FF49E
:102C6000805000FB09C919F58059C9F800801EF190
:102C7000040E761CEBE70020BDE8F083F0B40300FF
:102C80001C0008001600B6B2F61CB6080025B542B6
:102C900008D214F580573F688446CCF80070001DB8
:102CA0006D1CF4E7F0BC7047020050699169084060
:102CB0007047406910F00100704710B40100002215
:102CC000521C0C48824201D3032010E00B69002BF8
:102CD000F6D500230C6954F001040C615B1C83429F
:102CE00001D3032003E00A69D207F7D4002010BC07
:102CF00070470000410D03000EB478B504002500B4
:102D0000002015F560610860A06B30F40010A0632E
:102D1000E06BC00514D50798012808D115F580602F
:102D2000006850F0040015F58061086010E015F5AA
:102D30008060006830F0040015F58061086007E0ED
:102D400015F58060006830F0040015F580610860BA
:102D500010212000FFF746FF2000FFF755FF002657
:102D6000069886420ED215EB461010F5A0605FF073
:102D7000FF31816015EB461010F5A0600021C160A5
:102D8000761CEDE70121200000F07DF8C82001F05D
:102D9000EDFB0020A0615FF0FF306061E06BC005DB
:102DA0000AD54FF400706062DFF81007A062DFF808
:102DB0001007C4F8000108E080206062DFF8040713
:102DC000A062DFF80407C4F800010898002803D1C6
:102DD000A06950F01000A061A169DFF8F00601437E
:102DE000A161002072BC5DF810FB000010B402006D
:102DF000130013F5806000688008800013F580647C
:102E0000206013F5806000680C00E4B214F0030445
:102E1000204313F5806420600800C0B2012805D16A
:102E20004BF6803013F58064606008E00800C0B2A3
:102E3000022804D141F2707013F5806460600020B4
:102E400010BC704738B5040025000020009015F52F
:102E5000886000680090009830F02E000090009884
:102E600050F4807015F588610860642001F07EFBE5
:102E7000009830F4807015F5886108600A2001F030
:102E800075FB002032BD18B4020013000020009032
:102E900013F5886000680090009830F02E000090D4
:102EA0000098C00409D40800C0B2012805D10098D8
:102EB00050F4805013F5886420600098C00409D550
:102EC0000800C0B2002805D1009830F4805013F5F6
:102ED00088642060002012BC704781B001000A00A5
:102EE0000020009012F58860006800900098C0F300
:102EF000414001B070470100080010F58060806813
:102F000080B270472DE9F0478446089C099D0A9ECF
:102F10000020E6460F00FFB21EEB471717F5A0672B
:102F20005FF0FF38C7F808802F00FFB2002F05D0F0
:102F3000022F03D05ED3032F3AD07DE00F00FFB203
:102F40001EEB471717F5A06740F29D48C7F80C80A5
:102F50001700FFB23F0613D50F00FFB21EEB471755
:102F600017F5A06788465FFA88F81EEB481818F531
:102F7000A068D8F80C8058F48078C7F80C8016E068
:102F8000DCF83C70FF0512D50F00FFB21EEB4717AF
:102F900017F5A06788465FFA88F81EEB481818F501
:102FA000A068D8F80C8058F06008C7F80C8045E09D
:102FB0000F00FFB21EEB471717F5A06740F29D68A0
:102FC000C7F80C801700FFB23F0612D50F00FFB202
:102FD0001EEB471717F5A06788465FFA88F81EEBC7
:102FE000481818F5A068D8F80C8058F48078C7F80D
:102FF0000C8023E00F00FFB21EEB471717F5A06708
:1030000040F22528C7F80C801700FFB23F0612D502
:103010000F00FFB21EEB471717F5A06788465FFA4F
:1030200088F81EEB481818F5A068D8F80C8058F4FA
:10303000C078C7F80C8001E0012738001EF58067D2
:10304000D7F818805FF0010911F00F0719FA07F996
:1030500059EA08081EF58067C7F81880DCF8187070
:1030600057F00077CCF818701700FFB23F0602D572
:103070004FF4004700E00027A0465FFA88F8B8F157
:10308000020F02D15FF4003801E05FF000089946BA
:103090005FFA89F95FEA895919F0FE5992465FFA99
:1030A0008AFA5FEACA2A1AF4F04A5AEA0909AA46D1
:1030B0005FFA8AFA5FEA8A4A1AF4402A5AEA090948
:1030C000B2461FFA8AFA5FEA4A5A5FEA5A5A5AEA3D
:1030D000090957EA090958EA09098A465FFA8AFA8A
:1030E0001EEB4A1A1AF5A06ACAF80090A9465FFAC0
:1030F00089F9B9F1030F13D189465FFA89F91EEBFB
:10310000491919F5A069D9F8009059F000598A4673
:103110005FFA8AFA1EEB4A1A1AF5A06ACAF80090FA
:10312000C0B2BDE8F0872DE9FE4F04000D00160087
:10313000270095F801804FF48079E06BC00521D518
:10314000287900281ED13000C0B2002808D1687943
:10315000012805D16978200000F08EF90020D1E027
:103160003000C0B201280DD117EB481010F5A06057
:1031700017EB481111F5A061C96831F06001C16019
:10318000002068712869002813D02869298940180F
:10319000401E2989B0FBF1FA4846514680B289B2F7
:1031A000884208D2CA46514689B2288941432961DA
:1031B00001E05FF0010AE878002804D0514689B2A6
:1031C00028894143296117EB481010F5A06029694F
:1031D0004903490B524692B2BD4B13EAC24319430D
:1031E000AA7A520712F0C042114301613000C0B206
:1031F000002805D017EB481010F5A060E968416180
:1032000017F58060D0F808B01BF0010B9BF0010BA4
:1032100017EB481010F5A060006830F0005017EB75
:10322000481111F5A061086017EB481010F5A06077
:1032300000685946C9B250EA417017EB481111F5C0
:10324000A0610860A34917EB481010F5A060006862
:103250000860086830F080400860E878002804D0F2
:10326000086850F40040086003E0086830F400404B
:103270000860086850F000400860086817EB4811C3
:1032800011F5A06108603000C0B2002839D1E8789B
:10329000002836D12869002833D0E879002805D0E5
:1032A000022803D012D3032810D021E02869C01CC3
:1032B0008008ADF80400E06A80B2BDF804108842CE
:1032C00003D2A06950F02000A06111E02869C01C61
:1032D0008008ADF8040017F58060006980B2BDF881
:1032E0000410884203D2A06950F08060A061FFE71B
:1032F000002000902B699BB26A78E9682000FFF7F4
:1033000095FC0020BDE8FE8F0100080010F58060EC
:10331000406980B27047F0B403001C000D00EDB2AC
:10332000002614EB451010F5A0600068C0F3814240
:10333000002A01D0022A4DD114EB451010F5A060EF
:10334000006850F0804014EB451717F5A06738600F
:10335000D86A10F47F0F30D114EB451010F5A0603F
:10336000006820F0004014EB451717F5A06738609F
:1033700014EB451010F5A060006850F0004014EB0D
:10338000451717F5A067386014EB451010F5A060DD
:10339000006830F4004014EB451717F5A06738605B
:1033A000761C40F2E930864263D214EB451010F5EA
:1033B000A06000680028F3D45BE014EB451010F522
:1033C000A060006850F0004014EB451717F5A067A7
:1033D00038604EE014EB451010F5A060006850F026
:1033E000804014EB451717F5A067386014F580602E
:1033F000006910F47F0F30D114EB451010F5A06078
:10340000006820F0004014EB451717F5A0673860FE
:1034100014EB451010F5A060006850F0004014EB6C
:10342000451717F5A067386014EB451010F5A0603C
:10343000006830F4004014EB451717F5A0673860BA
:10344000761C40F2E930864213D214EB451010F599
:10345000A06000680028F3D40BE014EB451010F5D1
:10346000A060006850F0004014EB451717F5A06706
:1034700038600020F0BC704770B4020013000D00EB
:10348000EDB2012613EB451010F5A060104C14EAC4
:10349000C64454F00044046113EB451010F5A060DD
:1034A000046834F0804454F0004413EB451010F5E8
:1034B000A0600460002070BC7047000000020001A2
:1034C0000003E00080006000E0004000080020A34E
:1034D0000000F81F5C0C00202DE9F04105002E00D3
:1034E00000272800FFF757FB10212800FFF77AFB81
:1034F0002800FFF789FB0021102912D216EB41109A
:1035000010F5A060006850F0804020F0004030F4DA
:103510000040040016EB411010F5A0600460491C47
:10352000EAE75FF00008B8F1100F1FD216EB481061
:1035300010F5A060006850F0804050F0004030F47A
:103540000040040016EB481010F5A06004607F1CDA
:1035500040F2E930874206D216EB481010F5A06021
:1035600000680028F3D418F10108DCE75FF0FF30B1
:1035700016F58061486168612800FFF705FB0020AF
:10358000BDE8F08162B38B0708D0521E11F8013BF1
:1035900000F8013B00F024808B07F6D1830740F050
:1035A000208000BF103A07D330B4B1E83810103A89
:1035B000A0E83810F9D230BC530724BFB1E8081096
:1035C000A0E8081044BF51F8043B40F8043BD20780
:1035D00024BF31F8022B20F8022B44BF0B78037074
:1035E0007047121F17D35B0009D151F8043B20F834
:1035F000023B1B0C121F20F8023BF6D20BE051F8E5
:10360000043B00F8013B1B0A20F8023B1B0C121F75
:1036100000F8013BF3D238BF121D521E24BF11F82F
:10362000013B00F8013BF8D87047400062F30F22DD
:1036300062F31F42401810F0030308D0C91A1FD3C9
:10364000DB0748BF00F8012D28BF20F8022D13002A
:1036500030B414461546103928BF20E93C00FAD88A
:10366000490728BF20E90C0048BF40F8042D890015
:1036700028BF20F8022D48BF00F8012D30BC70474C
:10368000C91818BF00F8012DCB0728BF00F8012D7D
:1036900070478000F8B50022002300240026002592
:1036A000102D80F00D81012717FA05F213000A682A
:1036B0001A4014009C4240F001814A68012A08D057
:1036C0004A68022A05D04A68112A02D04A68122A9A
:1036D0001FD1D0F808C05FF0030E2A00D2B252000A
:1036E0001EFA02FE3CEA0E0CD1F80CE02A00D2B21F
:1036F00052001EFA02FE5EEA0C0CC0F808C04268D6
:10370000AF40BA434F68C7F30017AF403A431600C3
:103710004660C7685FF0030C2A00D2B252001CFA60
:1037200002F29743D1F808E02A00D2B252001EFA02
:1037300002FE5EEA0707C7604A68022A02D04A68AA
:10374000122A1ED12A00D20800EB8202166A5FF00C
:103750000F0E15F00702D2B292001EFA02FE36EAF0
:103760000E06D1F810E015F00702D2B292001EFA50
:1037700002FE5EEA060637002A00D20800EB82024B
:10378000176206682A00D2B252001CFA02FC36EA1E
:103790000C0691F804C01CF0030C2A00D2B25200AF
:1037A0001CFA02FC5CEA060606604A68D20040F198
:1037B0008580DFF84821176857F480471760126842
:1037C00012F480420092009ADFF834C12A00920875
:1037D0005CF822705FF00F0E15F00302D2B2920077
:1037E0001EFA02FE37EA0E07DFF81821904201D1D7
:1037F000002630E0DFF81021904201D101262AE0B6
:10380000DFF80821904201D1022624E0DFF80021F0
:10381000904201D103261EE03E4A904201D1042687
:1038200019E03D4A904201D1052614E03B4A9042FE
:1038300001D106260FE03A4A904201D107260AE05C
:10384000384A904201D1082605E0374A904201D11A
:10385000092600E00A26F6B215F00302D2B2920061
:10386000964037432A0092084CF822702F4E326857
:10387000A243D1F804C05FEACC3C00D522433260B9
:103880002B4F3E68A643D1F804C05FEA8C3C00D5BC
:1038900026433E60274F3A68A243D1F804C05FEA4E
:1038A000CC2C00D522433A60234F3E68A643D1F882
:1038B00004C05FEA8C2C00D526433E606D1CEFE609
:1038C000F1BD1300DBB2002B03D00B009BB2836170
:1038D00003E00B009BB21B048361704710B504002A
:1038E00016480168220092B2114206D0210089B226
:1038F0000160200080B200F023F810BD443802407F
:103900000838014000000240000402400008024064
:10391000000C024000100240001402400018024057
:10392000001C02400020024000240240003C0140F4
:10393000043C0140083C01400C3C0140143C014067
:1039400070472E0010B410F00703DFF830412268F2
:103950004FF6FF010A40DFF8281151EA03210A431C
:10396000226010BC7047DFF814010068C0F3022029
:103970007047010049B2002909D4012210F01F014B
:103980008A40404903005BB25B0941F8232070473D
:1039900010B4020052B2002A05D40A013A4B0400C6
:1039A00064B21A5508E00A01384B040064B214F0FE
:1039B0000F04234403F8042C10BC704770B40300B8
:1039C00013F00704D4F10700052801D3042001E017
:1039D000D4F10700251D072D01D2002500E0E51ECA
:1039E000012616FA00F0401E0140A94016FA05F51E
:1039F0006D1E2A401143080070BC704710B50400CA
:103A0000601EB0F1807F01D301200EE0601E2049CE
:103A100008600F215FF0FF30FFF7BAFF00201D495B
:103A2000086007201C490860002010BD10B5040084
:103A30002000FFF787FF10BD2DE9F04104000D00C5
:103A400016000027FFF78FFF80463200290040460E
:103A5000FFF7B4FF0100200040B2FFF799FFBDE877
:103A6000F08110B50400200040B2FFF782FF10BDC6
:103A700010B504002000FFF7C1FF10BD0CED00E001
:103A80000000FA0500E100E000E400E018ED00E0CD
:103A900014E000E018E000E010E000E070B5040081
:103AA0000D001600002C01D102201FE084F8CC6329
:103AB0000020C4F87C030020C4F88003200000F03C
:103AC00016F8002084F82303002084F82003002047
:103AD00084F82103002084F822032800002801D064
:103AE000C4F8D4532000FEF7DDFE002070BD0100B5
:103AF000002000230F2B06D2002001EB8302C2F826
:103B000084035B1CF6E70022B2F5007F06D200209A
:103B100001EB020383F81C01521CF5E7002008703A
:103B200000204870012088700020C1F8C4030120E3
:103B300008764020887100204876002081F81C0318
:103B4000012081F81D03002081F81F03002081F867
:103B50001E030020704710B402000023002910D07B
:103B6000D2F8800300280AD1D2F88003441CC2F89E
:103B7000804302EB8000C0F87813002002E00220AE
:103B800000E00220C0B210BC704710B40200002058
:103B90000B0092F83C43DBB2A34202D282F824131A
:103BA00001E002231800C0B210BC7047F0B404005A
:103BB0000025002614F54E772800C0B202282CD22A
:103BC000AC465FFA8CFC1A2000FB0CFC07EB0C00E7
:103BD0000A30060070798C465FFA8CFC604503D091
:103BE0000800C0B2FF2816D1B07994465FFA8CFC69
:103BF000604503D01000C0B2FF280CD1F0799C467C
:103C00005FFA8CFC604503D01800C0B2FF2802D1D7
:103C10002800C0B202E06D1CCEE7FF20F0BC704768
:103C200010B504002000FEF76FFE01212000FEF712
:103C300025FF002010BD38B584B0040002208DF8A7
:103C40000C00002594F82103012801D103202070E5
:103C5000207800281CD001282DD0022853D003281A
:103C600000F02C81052800F08A80062800F00081F1
:103C7000072800F09A80082800F0A380092800F0A7
:103C8000AB800A2800F0B8800B2800F00D813FE1DE
:103C900094F8200300280DD001202070C820FEF7E2
:103CA0001EFF2000FEF764FE002084F81C030020A5
:103CB000C4F8C8032CE194F82303012805D100209F
:103CC00084F81F03022020701CE0D4F8C80340F2DF
:103CD000E93188420ED394F81F03401C84F81F0377
:103CE00094F81F03042802D30D2020700AE000205E
:103CF000207007E0D4F8C8030A30C4F8C8030A20CB
:103D0000FEF7EDFE04E1D4F8D403002804D004212A
:103D10002000D4F8D42390476420FEF7E0FE200072
:103D2000FEF710FE84F81D030520207000212000FE
:103D300000F053FC60718021200000F04EFC2071E7
:103D4000A07980B202900020019094F81D030090A9
:103D500094F81C3380222179200000F01BFCA0790C
:103D600080B202900020019094F81D03009094F816
:103D70001C3300226179200000F00CFCC8E0200018
:103D800000F0C9F88DF80C009DF80C0000280BD14C
:103D9000002084F8240394F83703012802D1082076
:103DA000207001E007202070B2E0D4F8D40300288E
:103DB00006D001212000D4F8D42390470820207099
:103DC000A6E094F83D1389B2200000F0EAFC002838
:103DD00001D1092020709BE094F83F03800608D5AC
:103DE0000121200000F0F2FC002804D10A202070FC
:103DF00001E00A2020708BE0D4F88003002836D040
:103E00000020C4F87C03002005002800C0B2002870
:103E100015D12800C0B204EB8000D0F878030079F7
:103E200094F84713884208D12800C0B204EB800000
:103E3000D0F87803C4F87C0301E06D1CE5E7D4F802
:103E40007C03002811D02000D4F87C1389688847AF
:103E5000002807D10620207003212000D4F8D423A5
:103E6000904704E00D20207001E00D2020704FE00D
:103E7000D4F87C03002814D02000D4F87C130969FE
:103E800088478DF80C009DF80C00002802D10B200B
:103E9000207008E09DF80C00022804D10D2020704D
:103EA00001E00D20207033E0D4F87C03002804D01A
:103EB0002000D4F87C134969884729E0002084F861
:103EC00021032000FFF713FED4F87C03002807D05D
:103ED0002000D4F87C13C96888470020C4F87C030C
:103EE000D4F8D403002804D005212000D4F8D4232A
:103EF000904794F82203012806D1002084F8220379
:103F00002000FFF78DFE02E02000FEF7FDFCFFE73A
:103F1000002005B030BD7FB5040001250126607882
:103F2000002811D0022800F0808055D3042800F02A
:103F3000DE80C0F0B380062800F02181C0F001814E
:103F4000072800F03A8156E10821200000F08CFBA0
:103F500006003000C0B2002823D194F82D03A071D0
:103F600001206070A07980B202900020019094F846
:103F70001D03009094F81C3380222179200000F06A
:103F800009FBA07980B202900020019094F81D03F3
:103F9000009094F81C3300226179200000F0FAFAB6
:103FA00019E03000C0B2032815D194F81E03401C5C
:103FB00084F81E0394F81E03042802D30D202070F9
:103FC00009E06179200000F022FB2179200000F057
:103FD0001EFB002020700EE11221200000F044FBA7
:103FE00006003000C0B2002802D1022060701BE041
:103FF0003000C0B2032817D194F81E03401C84F887
:104000001E0394F81E03042802D30D2020700BE039
:104010006179200000F0FBFA2179200000F0F7FA26
:104020000020607000202070E5E00121200000F0F9
:10403000A1FB06003000C0B2002826D10220FEF706
:104040004EFD012084F81C0303206070A07980B22B
:1040500002900020019094F81D03009094F81C3306
:1040600080222179200000F095FAA07980B2029098
:104070000020019094F81D03009094F81C33002256
:104080006179200000F086FA07E03000C0B2032812
:1040900003D10D20207000206070ACE009212000C9
:1040A00000F001FB06003000C0B2002802D104205D
:1040B00060701BE03000C0B2032817D194F81E03D3
:1040C000401C84F81E0394F81E03042802D30D201C
:1040D00020700BE06179200000F099FA217920002E
:1040E00000F095FA002060700020207083E0B4F8A2
:1040F0003A13200000F0D7FA06003000C0B20028C2
:1041000002D1052060701BE03000C0B2032817D137
:1041100094F81E03401C84F81E0394F81E03042820
:1041200002D30D2020700BE06179200000F06FFABF
:104130002179200000F06BFA0020607000202070D0
:1041400059E094F83403002816D0FF2314F58E723A
:1041500094F83413200000F0C3FA06003000C0B217
:10416000002802D10620607008E03000C0B20328A9
:1041700004D10620607001E0062060703BE094F8F6
:104180003503002816D0FF2314F58E7294F83513EA
:10419000200000F0A5FA06003000C0B2002802D1CD
:1041A0000720607008E03000C0B2032804D1072067
:1041B000607001E0072060701DE094F8360300286D
:1041C00016D0FF2314F58E7294F83613200000F0F9
:1041D00087FA06003000C0B2002802D10020050096
:1041E00008E03000C0B2032804D10020050001E03F
:1041F00000200500FFE72800C0B204B070BDC0F881
:10420000C413704710B50400D4F8C403401CC4F8AC
:10421000C403200000F001F810BD10B504002078A0
:104220000B2808D1D4F87C03002804D02000D4F84F
:104230007C138969884710BD012180F823137047DA
:10424000002180F8231370470100012081F820032A
:10425000002081F82103002081F82203002070470C
:1042600010B50400012084F82103002084F8200305
:10427000002084F823032000FEF755FB217920005D
:1042800000F0C5F96179200000F0C1F9002010BDEF
:1042900080B500F00BFD00F00FF800F0C0F800F062
:1042A000A0F800F00FFD00F070F800F04DFD00F0F8
:1042B00025FD00F04DFDFAE700B5B3B03022002136
:1042C00006A800F051FD1422002101A800F04CFDC9
:1042D0008422002112A800F047FD8C48016851F0AB
:1042E00080510160006810F080500090009888486C
:1042F000016851F440410160006810F440400090B2
:104300000098012006905FF4A020079002200C90F6
:104310005FF480000D9004200E90D8200F900220B2
:1043200010900920119006A800F028FD002801D067
:1043300000F006F901F070F8002801D000F000F953
:104340000F20019002200290002003904FF4A05013
:1043500004904FF480500590072101A800F035FF2C
:10436000002801D000F0ECF86A4812900020259057
:1043700000202B900020319012A801F089F800282D
:1043800001D000F0DDF833B000BD10B5624C6348D9
:104390002060634860600020A0600120E060002091
:1043A0002061002060610020A0610020E061002009
:1043B0002062200001F048FB002801D000F0C0F886
:1043C0000021200001F060FD002801D000F0B8F8C5
:1043D0000021200001F08AFD002801D000F0B0F893
:1043E00010BD80B54F48504901605FF4E131416034
:1043F000002181600021C160002101610C21416127
:10440000002181610021C16100210162002141621E
:1044100001F09EFD002801D000F092F801BD38B5F2
:1044200086B014220021684600F09EFC3F480168D7
:1044300051F004010160016811F004010591059932
:10444000016851F080010160016811F0800105915F
:104450000599016851F002010160016811F0020143
:1044600005910599016851F008010160016811F09A
:10447000080105910599016851F04001016001684A
:1044800011F0400105910599016851F001010160A9
:10449000006810F0010005900598254C00220121CC
:1044A0002000FFF70EFA234D002240212800FFF7DD
:1044B00008FA4FF4005000901F480190002002902D
:1044C00069461E48FFF7E6F80120009001200190A0
:1044D000002002900020039069462000FFF7DAF8E0
:1044E00040200090012001900020029000200390C5
:1044F00069462800FFF7CEF8002200212820FFF7A8
:104500009BFA2820FFF7ADFA07B030BD40380240D3
:104510000070004000412000B80B00200054004013
:1045200068474020180A0020004800403038024008
:104530000004024000180240000011100008024070
:104540007047430038B5040020002100C9B200299B
:1045500001D1002500E001252A00D2B24021024805
:10456000FFF7AFF931BD00BF0018024070B504007D
:1045700002F026F80500260016F1010F02D00448CB
:104580000078361802F01CF8401BB042FAD370BD18
:10459000A0010020FEB504000D0016001F00BDF8AC
:1045A000280002909DF8240001909DF820000090C2
:1045B0003B00DBB23200D2B22900C9B22000FEF7C4
:1045C000F0F90020FEBD38B504000D002900C9B285
:1045D0002000FEF70CFA002032BD38B504000D00B3
:1045E000200000F029F8010089B24FF6FF729142D5
:1045F0000BD0010089B211F00F0104EB81012A00F8
:10460000D2B252F40042C1F88423C0B232BD0200DB
:104610000800C0B20B280DD20800C0B202EB800027
:10462000D0F884034004400C0B00DBB202EB8303A0
:10463000C3F884030020704701000020002210000E
:10464000C0B20B280DD21000C0B201EB8000D0F830
:104650008403000403D4D2B2100080B203E0521CE1
:10466000EDE74FF6FF7070477CB504000D002800A1
:10467000C0B280B2009014F58E734FF480720021A6
:10468000200000F050F80600C0B2002808D12A002F
:10469000D2B292B214F58E7104F2263000F0C4F852
:1046A0003000C0B276BDF8B504000D0014F11C074F
:1046B000280080B200903B004FF4007200212000DF
:1046C00000F031F80600C0B2002806D12A0092B2EC
:1046D000390014F54E7000F0D6F83000C0B2F2BDCB
:1046E0002DE9FC4104000D0016001F00380080B2C7
:1046F000009014F58E732A00D2B252F4407292B236
:104700000021200000F00FF88046C0B2002806D13A
:104710003A0092B2310014F58E7000F04AF940462A
:10472000C0B2BDE8F6812DE9F04105000E009046CB
:104730001F00069CA878012814D156F08000287428
:1047400006206874A5F81280404680B210F47F40BD
:10475000B0F5407F03D140F20940A88201E000207B
:10476000A882EC82220092B23900280000F04CF9B5
:10477000BDE8F08138B504000D00A07801280AD109
:1047800000202074052060742800C0B260820020E0
:10479000A0820020E08200220021200000F034F9F5
:1047A00032BD38B504000D00A078012808D10020E2
:1047B00020740920607465820020A0820020E082BD
:1047C00000220021200000F01FF932BD38B504009E
:1047D0000D00A07801280AD1002020740320607405
:1047E0002800C0B260820020A0820020E082002267
:1047F0000021200000F008F932BD38B504000D009A
:10480000A07801280AD102202074012060740020C1
:1048100060822800C0B2A0820020E0820022002135
:10482000200000F0F1F832BD10B40B7803704B7823
:1048300043708B78CC7853EA042343800B7903715F
:104840004B7943718B798371CB79C37113009BB220
:10485000092B16D30B7A4C7A53EA042303818B7A03
:10486000CC7A53EA042343810B7B4C7B53EA042329
:1048700083818B7B8373CB7BC3730B7C03744B7CF7
:10488000437410BC70472DE9F74F04000D00280059
:104890005FF000085FF00009AA4629782170697866
:1048A0006170A978EA7851EA022161802979217141
:1048B00069796171A979A171E979E171297A217226
:1048C000BDF808100A294FD30920ADF800000020D8
:1048D00006004046C0B2022846D2BDF800006188FA
:1048E000884241D26946504600F085F882469AF8DF
:1048F00001000428EDD15FF01A0B4046C0B20BFB5B
:1049000000F020440A3006005146300000F02EF836
:10491000002081460020070048463179C0B2884215
:104920001FD2BDF80000618888421AD269465046FD
:1049300000F061F882469AF801000528ECD1404663
:10494000C0B20BFB00F020444946C9B200EBC100E5
:10495000143007005146380000F01BF819F1010926
:10496000DAE718F10108B4E7BDE8F78F0A780270BA
:104970004A7842708A788270CA78C2700A79027165
:104980004A7942718A798271CA79C2710A7A02724D
:1049900070470A7802704A7842708A788270CA78C2
:1049A000C2700A794B7952EA032282808A79827135
:1049B000704770B44578032D1BD11500ADB2067851
:1049C000B61EB54202D30478A41E00E01400801C79
:1049D00000252B001D002600ADB2B6B2B54206D2AE
:1049E0001D00ADB2455D0D70491C9B1CF2E7002512
:1049F0000D7070BC704702000888137850FA83F07D
:104A00000880107810447047F8B504000D001600B7
:104A10000127A078012802D0022809D020E0A56053
:104A2000A681012020760220A0700120070017E057
:104A3000200000F018F807003800C0B2002803D0AA
:104A40003800C0B2032804D10120A07000202076D5
:104A500005E03800C0B2022801D10120A070FFE7B4
:104A60003800C0B2F2BDF8B5040001260027207E50
:104A7000012816D0C0F0168103284AD01AD3052881
:104A80006CD052D3072800F09C8075D3092800F021
:104A9000C080C0F0A2800B2800F0E580C0F0C78085
:104AA00000E1627914F11001200001F08FFD022075
:104AB0002076F7E061792000FDF7D6FF0700380087
:104AC000C0B201281AD1207C10F080000500E08AD5
:104AD000002809D02800C0B2802802D10320207607
:104AE00016E00520207613E02800C0B2802802D10D
:104AF000092020760CE00720207609E03800C0B2BB
:104B0000042803D03800C0B2022801D10B2020763F
:104B1000C8E0D4F8C403E0812379A289A168200009
:104B200001F08AFD04202076BCE021792000FDF709
:104B30009BFF07003800C0B2012801D10920207670
:104B40003800C0B2052802D10320060005E0380075
:104B5000C0B2042801D10B202076A3E001200090F0
:104B60006379A289A168200001F045FDD4F8C4034F
:104B7000E0810620207695E061792000FDF774FF42
:104B800007003800C0B2012802D10720207617E0C4
:104B90003800C0B2052804D10C202076032006007E
:104BA0000EE03800C0B2022802D10520207607E0CE
:104BB0003800C0B2042803D10B2020760220060062
:104BC00070E0237900220021200001F035FDD4F8A7
:104BD000C403E0810820207664E021792000FDF7FD
:104BE00043FF07003800C0B2012804D10D20207611
:104BF000002006000CE03800C0B2042802D10B20CF
:104C0000207605E03800C0B2052801D10320060057
:104C100048E001200090637900220021200001F08B
:104C2000EAFCD4F8C403E0810A2020763AE06179F6
:104C30002000FDF719FF07003800C0B2012804D199
:104C4000002006000D2020760CE03800C0B20228BB
:104C500002D10920207605E03800C0B2042801D135
:104C60000B2020761EE0607E401C6076607E03286C
:104C700004D2012020760120A07012E0062120003D
:104C8000D4F8D42390470020607661792000FFF7A4
:104C9000BEFC21792000FFF7BAFC00202070022022
:104CA0000600FFE73000C0B2F2BD000080B503206F
:104CB000FEF7BCFE002001F0F1FC01F015FD002024
:104CC00002BD000010B51D4C01220FF23D01200075
:104CD000FEF7E4FE002801D0FFF732FC184920005F
:104CE000FEF739FF002801D0FFF72AFC2000FEF76D
:104CF00097FF002801D0FFF723FC10BD80B50F48B7
:104D0000FEF799FF01BD00000A00D2B2012A06D0C9
:104D1000022A09D0042A0BD0052A01D00CE00BE0AE
:104D20000322084B1A7007E00222064B1A7003E0B8
:104D30000122044B1A70FFE770470000A401002015
:104D4000080000206F0C002080B501F055FD01BD6A
:104D500010B501F0B1FD04002100C9B2014801F015
:104D6000B1FD10BDC49C000810B5044610460A46AB
:104D700001462046FEF75AFC204610BD2DE9F843B7
:104D800004000027002C01D101201CE22078C0077C
:104D90006DD5DFF85006016811F00C01042909D027
:104DA000006810F00C0008280ED1DFF83C060068FF
:104DB000400209D5DFF828060068800357D56068EF
:104DC000002854D10120FEE16068B0F5803F06D193
:104DD000DFF80C06016851F48031016026E060685C
:104DE00000280AD1DFF8F805016831F4803101604C
:104DF000016831F48021016018E06068B0F5A02FEF
:104E00000AD1DFF8DC05016851F4802101600168F6
:104E100051F48031016009E0DFF8C405016831F424
:104E200080310160016831F48021016060680028F0
:104E30000ED001F0C5FB0500DFF8A4050068800373
:104E400015D401F0BDFB401B6528F5D30320BAE162
:104E500001F0B6FB0500DFF888050068800306D581
:104E600001F0AEFB401B6528F5D30320ABE12078B1
:104E700080075AD5DFF86C05016811F00C0F09D0D6
:104E8000006810F00C00082816D1DFF85C050068F7
:104E9000400211D4DFF848050168890704D5E168AC
:104EA000012901D001208EE1016831F0F801226969
:104EB00051EAC201016038E0E06800281FD0DFF845
:104EC0002085D8F8000050F00100C8F8000001F07B
:104ED00077FB0500D8F80000800706D401F070FBCE
:104EE000401B0328F6D303206DE1D8F8000030F012
:104EF000F800216950EAC100C8F8000015E0DFF8A9
:104F0000E084D8F8000040084000C8F8000001F034
:104F100057FB0500D8F80000800706D501F050FBCC
:104F2000401B0328F6D303204DE1207800072ED53F
:104F30006069002815D0DFF8B484D8F8000050F07C
:104F40000100C8F8000001F03BFB0500D8F80000A4
:104F500080071CD401F034FB401B0328F6D3032048
:104F600031E1DFF88884D8F8000040084000C8F834
:104F7000000001F025FB0500D8F80000800706D5E9
:104F800001F01EFB401B0328F6D303201BE1207811
:104F9000400740F18D80DFF86484D8F80000C0003D
:104FA0000DD4D8F8000050F08050C8F80000D8F8B0
:104FB000000010F080500090009801200700DFF8FA
:104FC0004094D9F80000C00513D4D9F8000050F47B
:104FD0008070C9F8000001F0F3FA0500D9F800006C
:104FE000C00506D401F0ECFA401B6528F6D3032077
:104FF000E9E0A068012806D1DFF80804016851F053
:105000000101016025E0A06800280AD1DFF8F4035F
:105010000168490849000160016831F0040101603C
:1050200017E0A06805280AD1DFF8D803016851F01D
:1050300004010160016851F00101016009E0DFF83D
:10504000C4030168490849000160016831F00401A6
:105050000160A068002810D001F0B2FA0500DFF866
:10506000A4030068800719D401F0AAFA401B41F29A
:1050700089318842F3D30320A5E001F0A1FA0500AD
:10508000DFF880030068800708D501F099FA401B1B
:1050900041F289318842F3D3032094E03800C0B252
:1050A000012805D1D8F8000030F08050C8F8000081
:1050B000A069002800F08680DFF82803006810F05F
:1050C0000C00082856D0A06902283DD1DFF81083D3
:1050D000D8F8000030F08070C8F8000001F070FAD5
:1050E0008146D8F80000800107D501F069FAB0EBDD
:1050F00009000328F5D3032065E0E169206A014334
:10510000606A51EA8011A06A4008401E51EA0041DD
:10511000E06A51EA006151F00051DFF8CC02016011
:10512000D8F8000050F08070C8F8000001F048FA8C
:105130000500D8F80000800144D401F041FA401B7A
:105140000328F6D303203EE0DFF89482D8F800006D
:1051500030F08070C8F8000001F032FA0500D8F88D
:10516000000080012ED501F02BFA401B0328F6D356
:10517000032028E0DFF8700200680600A06901281B
:105180001ED016F48000E169884219D116F03F0064
:10519000216A884214D147F6C0703040616AB0EB92
:1051A000811F0DD116F44030A16A4908491EB0EBA9
:1051B000014F05D116F07060E16AB0EB016F01D0CC
:1051C000012000E00020BDE8F2832DE9F041040059
:1051D0000D000026002C01D10120A0E0DFF828728C
:1051E000386810F00F00A8420BD23868000900019F
:1051F00028433860386810F00F00A84201D0012021
:105200008DE02078800719D52078400705D5DFF894
:10521000D401016851F4E05101602078000705D500
:10522000DFF8C001016851F460410160DFF8B4119A
:105230000A6832F0F002A06802430A602078C007D2
:1052400037D56068012806D1DFF894010068800333
:1052500011D4012063E06068022806D1DFF88001E4
:105260000068800107D4012059E05D48006880078C
:1052700001D4012053E0DFF86C81D8F800108908D0
:10528000890060680143C8F8001001F099F9060030
:10529000D8F8000010F00C006168B0EB810F08D066
:1052A00001F08EF9801B41F289318842F0D303204E
:1052B00035E0386810F00F0085420BD238680009DD
:1052C000000128433860386810F00F00A84201D070
:1052D000012024E02078400706D542490A6832F4CC
:1052E000E052E06802430A602078000707D53D4895
:1052F000016831F46041226951EAC201016000F0A5
:1053000010F84249374A1268C2F30312895CC84058
:10531000384908603848006801F0C0F90020BDE84D
:10532000F0812DE9F04100240025002600272D48BA
:10533000006810F00C00002804D0042804D00828CD
:1053400004D031E02A4830E031482EE0DFF8988080
:10535000D8F8000010F03F000400D8F80000400228
:105360000CD5D8F80000C0F388102949A1FB000132
:105370002200002301F0BAFA05000BE0D8F8000083
:10538000C0F388101A49A1FB00012200002301F09C
:10539000ADFA0500D8F80000C0F30140401C400001
:1053A0000600B5FBF6F000E01148BDE8F0811148B9
:1053B0000068704780B5FFF7FAFF1649094A12687E
:1053C000C2F38222895CC84002BD80B5FFF7EFFFBF
:1053D0001049044A1268C2F34232895CC84002BDD7
:1053E0000038024008380240043802407438024055
:1053F0000024F40004000020000000204038024097
:105400000070004070380240003C0240D49C00080C
:1054100000127A00009D00087CB500241B4801683A
:1054200051F080510160006810F0805000900098A9
:10543000154E306850F48030306001F0C1F805003E
:10544000104C2068C00308D401F0BAF8401B40F2A9
:10545000E9318842F4D3032013E0306850F400307F
:10546000306001F0ADF806002068800308D401F038
:10547000A7F8801B40F2E9318842F5D3032000E011
:10548000002076BD047000400070004040380240AB
:105490002DE9F84F05005FF0000B002400260027DF
:1054A0005FF000082878C0070ED5DFF8741508688B
:1054B00030F4000008600A68686B02430A60686B99
:1054C000002801D1012007002868000312D5DFF869
:1054D00054150A6832F44012E86B02430A60E86B24
:1054E000B0F5801F01D101200700E86B002801D131
:1054F000012080462868C00212D5DFF828150A6806
:1055000032F44002286C02430A60286CB0F5800F28
:1055100001D101200700286C002801D1012080461C
:105520002868C00101D5012007002878800677D5BA
:10553000DFF8F404016851F080510160006810F058
:10554000805000900098DFF8E494D9F8000050F4FF
:105550008070C9F8000001F033F88346D9F80000E4
:10556000C00507D401F02CF8B0EB0B006528F5D38B
:10557000032053E2DFF8B894D9F8000010F440702B
:105580000400002C2CD0286B10F44070844227D0EB
:10559000D9F8000030F440700400D9F8000050F44D
:1055A0008030C9F80000D9F8000030F48030C9F824
:1055B0000000C9F80040D9F80000C00710D500F07D
:1055C000FFFF8346D9F80000800709D400F0F8FFF8
:1055D000B0EB0B0041F289318842F3D303201DE286
:1055E000286B10F44070B0F5407F0BD1DFF8301419
:1055F0000A6832F4F8122B6BDFF8380403401A43C0
:105600000A6005E0DFF81804016831F4F811016060
:10561000D9F80000296B0905090D0843C9F80000F5
:105620002878C00609D5DFF8FC13086830F08070D0
:1056300008600A68A86B02430A602868400407D51E
:10564000DFF8F4130A6832F44032686E02430A60ED
:105650002868000407D5DFF8E0130A6832F4402216
:10566000A86E02430A602868C00307D5DFF8C81394
:105670000A6832F44012E86E02430A602868800328
:1056800007D5DFF8B4130A6832F44002286F0243EA
:105690000A602878400607D5DFF89C130A6892084C
:1056A0009200686C02430A602878000607D5DFF88C
:1056B00088130A6832F00C02A86C02430A6028685A
:1056C000C00507D5DFF870130A6832F03002E86CC5
:1056D00002430A602868800507D5DFF85C130A6872
:1056E00032F0C002286D02430A602868400507D5E1
:1056F000DFF844130A6832F44072686D02430A60AE
:105700002868000507D5DFF830130A6832F44062D4
:10571000A86D02430A602868C00407D5DFF8181393
:105720000A6832F44052E86D02430A602868800437
:1057300007D5DFF804130A6832F44042286E0243AA
:105740000A602868400207D5DFF8EC120A6832F0D8
:105750008062A86F02430A60286880020DD5DFF8D6
:10576000D8120A6832F00062E86F02430A60E86FFC
:10577000B0F1006F01D1012080462878000701D5E3
:10578000012080462868400307D5DFF8AC120A687C
:1057900032F04072686F02430A602868000208D540
:1057A000DFF894120A6832F08052D5F88000024384
:1057B0000A60012F04D02868B0F1007F40F0998082
:1057C000DFF878A2DAF8000030F08060CAF8000054
:1057D00000F0F6FE8146DAF80000000107D500F07F
:1057E000EFFEB0EB09006528F5D3032016E1287819
:1057F000C00716D5686B002813D1DFF84402016892
:10580000C1F301410C000168C1F303610E00696836
:10581000220452EA811252EA0662A96852EA01722F
:1058200002602868000303D5E86BB0F5801F06D03E
:105830002868C00220D5286CB0F5800F1CD1DFF895
:1058400000020168C1F301410C000168C1F302715B
:105850000E006968220452EA8112E96852EA016284
:1058600052EA06720260DFF8BC0101684909490189
:105870006A6A521E114301602868C00113D5DFF81F
:10588000C0010168C1F303610C000168C1F302713A
:105890000E0069682A69120452EA811252EA04620F
:1058A00052EA06720260286880010DD5686829698D
:1058B000090451EA8011E86851EA0061A86851EAD8
:1058C0000071DFF87C010160DAF8000050F08060C0
:1058D000CAF8000000F074FE8346DAF80000000108
:1058E00007D400F06DFEB0EB0B006528F5D3032064
:1058F00094E0B8F1010F40F09080DFF840A1DAF8B1
:10590000000030F08050CAF8000000F059FE8146D7
:10591000DAF80000800007D500F052FEB0EB090075
:105920006528F5D3032079E02868000302D5E86BE9
:10593000002805D02868C00220D5286C00281DD179
:10594000DFF800010168C1F301410C000168C1F3F7
:1059500002710E006969220452EA8112A96952EAB1
:10596000016252EA06720260DFF8B800016831F4A1
:10597000F851AA6A521E51EA022101602868800289
:1059800017D5E86FB0F1006F13D1DFF8B8000168E8
:10599000C1F303610C000168C1F302710E00696973
:1059A0002A6A120452EA811252EA046252EA067228
:1059B0000260287800071BD5DFF888000168C1F372
:1059C00003610C000168C1F301410E0069693204F2
:1059D00052EA811252EA0462E96952EA01720260F3
:1059E000DFF840100A6832F44032E86A02430A6085
:1059F000DAF8000050F08050CAF8000000F0E0FD36
:105A00008346DAF80000800007D400F0D9FDB0EB3F
:105A10000B006528F5D3032000E00020BDE8F28FDD
:105A2000083802408C380240403802400070004084
:105A300070380240FFFCFF0F9038024000380240EF
:105A4000843802408838024010B50400002C01D18F
:105A500001205EE094F84100002805D1002084F880
:105A60004000200000F057FE242084F84100206808
:105A700000684008400021680860606830F070608D
:105A8000216808612068806830F4004021688860DF
:105A9000E068012805D1A06850F4004021688860C2
:105AA00004E0A06850F4044021688860E06802289F
:105AB00003D14FF40060216848602068406840F0DE
:105AC000007050F40040216848602068C06830F4DD
:105AD00000402168C860216960690143A06951EAFA
